{
  "_format": "hh-sol-artifact-1",
  "contractName": "LuckySevenGame",
  "sourceName": "contracts/LuckySevenGame.sol",
  "abi": [
    {
      "inputs": [
        {
          "internalType": "address",
          "name": "_token",
          "type": "address"
        }
      ],
      "stateMutability": "nonpayable",
      "type": "constructor"
    },
    {
      "inputs": [
        {
          "internalType": "uint256",
          "name": "amt",
          "type": "uint256"
        }
      ],
      "name": "transfer",
      "outputs": [],
      "stateMutability": "nonpayable",
      "type": "function"
    },
    {
      "inputs": [
        {
          "internalType": "uint256",
          "name": "amt",
          "type": "uint256"
        }
      ],
      "name": "transferFrom",
      "outputs": [],
      "stateMutability": "nonpayable",
      "type": "function"
    }
  ],
  "bytecode": "0x608060405234801561001057600080fd5b506040516106683803806106688339818101604052810190610032919061008d565b806000806101000a81548173ffffffffffffffffffffffffffffffffffffffff021916908373ffffffffffffffffffffffffffffffffffffffff16021790555050610108565b600081519050610087816100f1565b92915050565b6000602082840312156100a3576100a26100ec565b5b60006100b184828501610078565b91505092915050565b60006100c5826100cc565b9050919050565b600073ffffffffffffffffffffffffffffffffffffffff82169050919050565b600080fd5b6100fa816100ba565b811461010557600080fd5b50565b610551806101176000396000f3fe608060405234801561001057600080fd5b50600436106100365760003560e01c806312514bba1461003b57806377a11f7e14610057575b600080fd5b610055600480360381019061005091906103ad565b610073565b005b610071600480360381019061006c91906103ad565b6101d9565b005b8060008054906101000a900473ffffffffffffffffffffffffffffffffffffffff1673ffffffffffffffffffffffffffffffffffffffff166370a08231306040518263ffffffff1660e01b81526004016100cd9190610425565b60206040518083038186803b1580156100e557600080fd5b505afa1580156100f9573d6000803e3d6000fd5b505050506040513d601f19601f8201168201806040525081019061011d91906103da565b101561012857600080fd5b60008054906101000a900473ffffffffffffffffffffffffffffffffffffffff1673ffffffffffffffffffffffffffffffffffffffff1663a9059cbb33836040518363ffffffff1660e01b8152600401610183929190610477565b602060405180830381600087803b15801561019d57600080fd5b505af11580156101b1573d6000803e3d6000fd5b505050506040513d601f19601f820116820180604052508101906101d59190610380565b5050565b8060008054906101000a900473ffffffffffffffffffffffffffffffffffffffff1673ffffffffffffffffffffffffffffffffffffffff166370a08231336040518263ffffffff1660e01b81526004016102339190610425565b60206040518083038186803b15801561024b57600080fd5b505afa15801561025f573d6000803e3d6000fd5b505050506040513d601f19601f8201168201806040525081019061028391906103da565b101561028e57600080fd5b60008054906101000a900473ffffffffffffffffffffffffffffffffffffffff1673ffffffffffffffffffffffffffffffffffffffff166323b872dd3330846040518463ffffffff1660e01b81526004016102eb93929190610440565b602060405180830381600087803b15801561030557600080fd5b505af1158015610319573d6000803e3d6000fd5b505050506040513d601f19601f8201168201806040525081019061033d9190610380565b5050565b600081519050610350816104ed565b92915050565b60008135905061036581610504565b92915050565b60008151905061037a81610504565b92915050565b600060208284031215610396576103956104e8565b5b60006103a484828501610341565b91505092915050565b6000602082840312156103c3576103c26104e8565b5b60006103d184828501610356565b91505092915050565b6000602082840312156103f0576103ef6104e8565b5b60006103fe8482850161036b565b91505092915050565b610410816104a0565b82525050565b61041f816104de565b82525050565b600060208201905061043a6000830184610407565b92915050565b60006060820190506104556000830186610407565b6104626020830185610407565b61046f6040830184610416565b949350505050565b600060408201905061048c6000830185610407565b6104996020830184610416565b9392505050565b60006104ab826104be565b9050919050565b60008115159050919050565b600073ffffffffffffffffffffffffffffffffffffffff82169050919050565b6000819050919050565b600080fd5b6104f6816104b2565b811461050157600080fd5b50565b61050d816104de565b811461051857600080fd5b5056fea2646970667358221220bd1265ebfb15927b9d0ec99ee5f3f101acbbbe16ac59de6fb423db371274271d64736f6c63430008070033",
  "linkReferences": {},
  "deployedLinkReferences": {}
}